{
  "contractName": "Manager",
  "abi": [
    {
      "inputs": [
        {
          "internalType": "address",
          "name": "_user",
          "type": "address"
        },
        {
          "internalType": "address",
          "name": "_contrat",
          "type": "address"
        }
      ],
      "stateMutability": "nonpayable",
      "type": "constructor"
    },
    {
      "anonymous": false,
      "inputs": [
        {
          "indexed": false,
          "internalType": "contract Conversation",
          "name": "_conversation",
          "type": "address"
        },
        {
          "indexed": false,
          "internalType": "address",
          "name": "_sender",
          "type": "address"
        },
        {
          "indexed": false,
          "internalType": "address",
          "name": "_to",
          "type": "address"
        }
      ],
      "name": "NewConversation",
      "type": "event"
    },
    {
      "inputs": [
        {
          "internalType": "address",
          "name": "_to",
          "type": "address"
        }
      ],
      "name": "newConv",
      "outputs": [],
      "stateMutability": "nonpayable",
      "type": "function"
    },
    {
      "inputs": [
        {
          "internalType": "uint256",
          "name": "_startedAt",
          "type": "uint256"
        },
        {
          "internalType": "contract Conversation",
          "name": "_conversation",
          "type": "address"
        },
        {
          "internalType": "address",
          "name": "_sender",
          "type": "address"
        },
        {
          "internalType": "address",
          "name": "_to",
          "type": "address"
        }
      ],
      "name": "pushConv",
      "outputs": [],
      "stateMutability": "nonpayable",
      "type": "function"
    }
  ],
  "bytecode": "0x608060405234801561001057600080fd5b5060405161112838038061112883398101604081905261002f9161007c565b600080546001600160a01b039384166001600160a01b031991821617909155600180549290931691161790556100af565b80516001600160a01b038116811461007757600080fd5b919050565b6000806040838503121561008f57600080fd5b61009883610060565b91506100a660208401610060565b90509250929050565b61106a806100be6000396000f3fe608060405234801561001057600080fd5b50600436106100365760003560e01c806350b3fb671461003b578063687c7a3f14610182575b600080fd5b6101806100493660046105f7565b6040805160808101825294855273ffffffffffffffffffffffffffffffffffffffff938416602086019081529284169085019081529083166060850190815260028054600181018255600091909152945160049095027f405787fa12a823e0f2b7631cc41b3ba8828b3321ca811111fa75cd3aa3bb5ace81019590955591517f405787fa12a823e0f2b7631cc41b3ba8828b3321ca811111fa75cd3aa3bb5acf850180549185167fffffffffffffffffffffffff000000000000000000000000000000000000000092831617905590517f405787fa12a823e0f2b7631cc41b3ba8828b3321ca811111fa75cd3aa3bb5ad08501805491851691831691909117905590517f405787fa12a823e0f2b7631cc41b3ba8828b3321ca811111fa75cd3aa3bb5ad19093018054939092169216919091179055565b005b61018061019036600461064a565b60005473ffffffffffffffffffffffffffffffffffffffff163314610216576040517f08c379a000000000000000000000000000000000000000000000000000000000815260206004820152601460248201527f796f75277265206e6f7420746865206f776e657200000000000000000000000060448201526064015b60405180910390fd5b6001546040517fd4358b1f00000000000000000000000000000000000000000000000000000000815273ffffffffffffffffffffffffffffffffffffffff8381166004830152600092169063d4358b1f90602401602060405180830381865afa158015610287573d6000803e3d6000fd5b505050506040513d601f19601f820116820180604052508101906102ab919061066e565b905073ffffffffffffffffffffffffffffffffffffffff8116610350576040517f08c379a000000000000000000000000000000000000000000000000000000000815260206004820152602560248201527f536f72727920796f757220667269656e64206973206e6f74206f6e207768617460448201527f7344617070000000000000000000000000000000000000000000000000000000606482015260840161020d565b60003383604051610360906105c5565b73ffffffffffffffffffffffffffffffffffffffff928316815291166020820152604001604051809103906000f0801580156103a0573d6000803e3d6000fd5b50604080516080810182524280825273ffffffffffffffffffffffffffffffffffffffff84811660208401819052338486018190528983166060860181905295517f50b3fb67000000000000000000000000000000000000000000000000000000008152600481019490945260248401919091526044830194909452606482019390935292935091908416906350b3fb6790608401600060405180830381600087803b15801561044f57600080fd5b505af1158015610463573d6000803e3d6000fd5b50506002805460018101825560009190915283517f405787fa12a823e0f2b7631cc41b3ba8828b3321ca811111fa75cd3aa3bb5ace6004909202918201556020808501517f405787fa12a823e0f2b7631cc41b3ba8828b3321ca811111fa75cd3aa3bb5acf830180547fffffffffffffffffffffffff000000000000000000000000000000000000000090811673ffffffffffffffffffffffffffffffffffffffff938416179091556040808801517f405787fa12a823e0f2b7631cc41b3ba8828b3321ca811111fa75cd3aa3bb5ad08601805484169185169190911790556060808901517f405787fa12a823e0f2b7631cc41b3ba8828b3321ca811111fa75cd3aa3bb5ad1909601805490931695841695909517909155805188831681523393810193909352908916908201527ff6d53c78c84276375332d8c7000b21b8336cab7d7a4a09ffc4a2be6c9787e32a935001905060405180910390a150505050565b6109a98061068c83390190565b73ffffffffffffffffffffffffffffffffffffffff811681146105f457600080fd5b50565b6000806000806080858703121561060d57600080fd5b84359350602085013561061f816105d2565b9250604085013561062f816105d2565b9150606085013561063f816105d2565b939692955090935050565b60006020828403121561065c57600080fd5b8135610667816105d2565b9392505050565b60006020828403121561068057600080fd5b8151610667816105d256fe608060405234801561001057600080fd5b506040516109a93803806109a983398101604081905261002f9161007c565b600080546001600160a01b039384166001600160a01b031991821617909155600180549290931691161790556100af565b80516001600160a01b038116811461007757600080fd5b919050565b6000806040838503121561008f57600080fd5b61009883610060565b91506100a660208401610060565b90509250929050565b6108eb806100be6000396000f3fe608060405234801561001057600080fd5b50600436106100365760003560e01c8063469c81101461003b57806353f5e38014610050575b600080fd5b61004e61004936600461064a565b61006e565b005b610058610452565b6040516100659190610749565b60405180910390f35b60005473ffffffffffffffffffffffffffffffffffffffff163314806100ab575060015473ffffffffffffffffffffffffffffffffffffffff1633145b61013c576040517f08c379a000000000000000000000000000000000000000000000000000000000815260206004820152602a60248201527f596f752063616e277420706172746963697061746520746f207468697320636f60448201527f6e766572736174696f6e0000000000000000000000000000000000000000000060648201526084015b60405180910390fd5b604080516000815260208101808352815190209161015c91849101610846565b60405160208183030381529060405280519060200120036101d9576040517f08c379a000000000000000000000000000000000000000000000000000000000815260206004820152601060248201527f4d65737361676520697320656d707479000000000000000000000000000000006044820152606401610133565b60005473ffffffffffffffffffffffffffffffffffffffff1633036103255760408051608081018252828152336020808301919091526001805473ffffffffffffffffffffffffffffffffffffffff1693830193909352426060830152600280549384018155600052815180519293849360049091027f405787fa12a823e0f2b7631cc41b3ba8828b3321ca811111fa75cd3aa3bb5ace0192610280928492910190610582565b506020820151600182810180547fffffffffffffffffffffffff000000000000000000000000000000000000000090811673ffffffffffffffffffffffffffffffffffffffff94851617909155604080860151600286018054909316908516179091556060909401516003909301929092559054915191169033907fb3eade51ac74e59b110a9e8b756cfacc4e791d1293c83a1f69f2384373bb70ec90600090a35050565b60408051608081018252828152336020808301919091526000805473ffffffffffffffffffffffffffffffffffffffff1693830193909352426060830152600280546001810182559352815180519293849360049091027f405787fa12a823e0f2b7631cc41b3ba8828b3321ca811111fa75cd3aa3bb5ace01926103ad928492910190610582565b5060208201516001820180547fffffffffffffffffffffffff000000000000000000000000000000000000000090811673ffffffffffffffffffffffffffffffffffffffff9384161790915560408085015160028501805490931690841617909155606090930151600390920191909155600080549251929091169133917fb3eade51ac74e59b110a9e8b756cfacc4e791d1293c83a1f69f2384373bb70ec91a35050565b60606002805480602002602001604051908101604052809291908181526020016000905b8282101561057957838290600052602060002090600402016040518060800160405290816000820180546104a990610862565b80601f01602080910402602001604051908101604052809291908181526020018280546104d590610862565b80156105225780601f106104f757610100808354040283529160200191610522565b820191906000526020600020905b81548152906001019060200180831161050557829003601f168201915b505050918352505060018281015473ffffffffffffffffffffffffffffffffffffffff9081166020808501919091526002850154909116604084015260039093015460609092019190915291835292019101610476565b50505050905090565b82805461058e90610862565b90600052602060002090601f0160209004810192826105b057600085556105f6565b82601f106105c957805160ff19168380011785556105f6565b828001600101855582156105f6579182015b828111156105f65782518255916020019190600101906105db565b50610602929150610606565b5090565b5b808211156106025760008155600101610607565b7f4e487b7100000000000000000000000000000000000000000000000000000000600052604160045260246000fd5b60006020828403121561065c57600080fd5b813567ffffffffffffffff8082111561067457600080fd5b818401915084601f83011261068857600080fd5b81358181111561069a5761069a61061b565b604051601f82017fffffffffffffffffffffffffffffffffffffffffffffffffffffffffffffffe0908116603f011681019083821181831017156106e0576106e061061b565b816040528281528760208487010111156106f957600080fd5b826020860160208301376000928101602001929092525095945050505050565b60005b8381101561073457818101518382015260200161071c565b83811115610743576000848401525b50505050565b60006020808301818452808551808352604092508286019150828160051b87010184880160005b83811015610838577fffffffffffffffffffffffffffffffffffffffffffffffffffffffffffffffc08984030185528151608081518186528051808388015260a092506107c2818489018d8501610719565b838b015173ffffffffffffffffffffffffffffffffffffffff908116888d01528a850151168a880152606093840151938701939093525095880195601f919091017fffffffffffffffffffffffffffffffffffffffffffffffffffffffffffffffe0169093019092019190860190600101610770565b509098975050505050505050565b60008251610858818460208701610719565b9190910192915050565b600181811c9082168061087657607f821691505b6020821081036108af577f4e487b7100000000000000000000000000000000000000000000000000000000600052602260045260246000fd5b5091905056fea26469706673582212202bac5a5ba666edd4a44ad847c399561cfad4745e2f8e6123f0aa7067a218a5f064736f6c634300080d0033a2646970667358221220e4b7c15c03751d6e9ca66b45f5c05dae24bad4d06f6ab33965cdfa9e5ef0c34764736f6c634300080d0033",
  "immutableReferences": {},
  "source": "// SPDX-License-Identifier: MIT\n///@author Adam Korchane\npragma solidity 0.8.13;\nimport \"./Conversation.sol\";\nimport \"./WhatsDapp.sol\";\n\n///@notice this contract manage all user's conversations\ncontract Manager{\n    event NewConversation(Conversation _conversation, address _sender, address _to);\n\n    address user;\n    WhatsDapp whatsDapp;\n    struct Conv{\n        uint startedAt;\n        Conversation conversation;\n        address sender;\n        address to;\n    }\n\n    Conv[] conversations;\n\n    constructor(address _user, address _contrat){\n        user = _user;\n        whatsDapp = WhatsDapp(_contrat);\n    }\n\n    ///@notice create a new conversation and push the conversation to the _to manager\n    function newConv(address _to)external{\n        require(msg.sender == user, \"you're not the owner\");\n        Manager tmpManager = whatsDapp.getManagerOf(_to);\n        require(address(tmpManager) != address(0), \"Sorry your friend is not on whatsDapp\");\n        Conversation _conv = new Conversation(msg.sender, _to);\n        Conv memory tmp = Conv(block.timestamp, _conv, msg.sender, _to);\n        tmpManager.pushConv(block.timestamp, _conv, _to, msg.sender);\n        conversations.push(tmp);\n        emit NewConversation(_conv, msg.sender, _to);\n    }\n    ///@notice push conversation in this contrat\n    ///@dev used by other managers\n    function pushConv(uint _startedAt,Conversation _conversation, address _sender, address _to)public{\n        Conv memory _conv = Conv(_startedAt, _conversation, _sender, _to);\n        conversations.push(_conv);\n    }\n\n}",
  "sourcePath": "/home/amsteradams/developpement/WhatsDapp/contracts/Manager.sol",
  "compiler": {
    "name": "solc",
    "version": "0.8.13+commit.abaa5c0e.Emscripten.clang"
  },
  "schemaVersion": "3.4.6",
  "updatedAt": "2022-05-19T17:48:27.661Z",
  "devdoc": {
    "kind": "dev",
    "methods": {
      "pushConv(uint256,address,address,address)": {
        "details": "used by other managers"
      }
    },
    "version": 1
  },
  "userdoc": {
    "kind": "user",
    "methods": {
      "newConv(address)": {
        "notice": "create a new conversation and push the conversation to the _to manager"
      },
      "pushConv(uint256,address,address,address)": {
        "notice": "push conversation in this contrat"
      }
    },
    "notice": "this contract manage all user's conversations",
    "version": 1
  }
}