{
  "contractName": "Manager",
  "abi": [
    {
      "inputs": [
        {
          "internalType": "address",
          "name": "_user",
          "type": "address"
        },
        {
          "internalType": "address",
          "name": "_contrat",
          "type": "address"
        }
      ],
      "stateMutability": "nonpayable",
      "type": "constructor"
    },
    {
      "anonymous": false,
      "inputs": [
        {
          "indexed": false,
          "internalType": "contract Conversation",
          "name": "_conversation",
          "type": "address"
        },
        {
          "indexed": false,
          "internalType": "address",
          "name": "_sender",
          "type": "address"
        },
        {
          "indexed": false,
          "internalType": "address",
          "name": "_to",
          "type": "address"
        }
      ],
      "name": "NewConversation",
      "type": "event"
    },
    {
      "inputs": [
        {
          "internalType": "address",
          "name": "_to",
          "type": "address"
        }
      ],
      "name": "newConv",
      "outputs": [],
      "stateMutability": "nonpayable",
      "type": "function"
    },
    {
      "inputs": [
        {
          "internalType": "uint256",
          "name": "_startedAt",
          "type": "uint256"
        },
        {
          "internalType": "contract Conversation",
          "name": "_conversation",
          "type": "address"
        },
        {
          "internalType": "address",
          "name": "_sender",
          "type": "address"
        },
        {
          "internalType": "address",
          "name": "_to",
          "type": "address"
        }
      ],
      "name": "pushConv",
      "outputs": [],
      "stateMutability": "nonpayable",
      "type": "function"
    },
    {
      "inputs": [],
      "name": "getConvs",
      "outputs": [
        {
          "components": [
            {
              "internalType": "uint256",
              "name": "startedAt",
              "type": "uint256"
            },
            {
              "internalType": "contract Conversation",
              "name": "conversation",
              "type": "address"
            },
            {
              "internalType": "address",
              "name": "sender",
              "type": "address"
            },
            {
              "internalType": "address",
              "name": "to",
              "type": "address"
            }
          ],
          "internalType": "struct Manager.Conv[]",
          "name": "",
          "type": "tuple[]"
        }
      ],
      "stateMutability": "view",
      "type": "function"
    }
  ],
  "bytecode": "0x608060405234801561001057600080fd5b5060405161152738038061152783398101604081905261002f9161007c565b600080546001600160a01b039384166001600160a01b031991821617909155600180549290931691161790556100af565b80516001600160a01b038116811461007757600080fd5b919050565b6000806040838503121561008f57600080fd5b61009883610060565b91506100a660208401610060565b90509250929050565b611469806100be6000396000f3fe608060405234801561001057600080fd5b50600436106100415760003560e01c806350b3fb67146100465780635b18e3851461005b578063687c7a3f14610079575b600080fd5b610059610054366004610711565b61008c565b005b61006361020a565b6040516100709190610764565b60405180910390f35b6100596100873660046107e3565b6102aa565b6040805160808101825285815273ffffffffffffffffffffffffffffffffffffffff858116602080840182815287841685870181815288861660608089019182526002805460018101825560009182528a517f405787fa12a823e0f2b7631cc41b3ba8828b3321ca811111fa75cd3aa3bb5ace60049092029182015595517f405787fa12a823e0f2b7631cc41b3ba8828b3321ca811111fa75cd3aa3bb5acf870180547fffffffffffffffffffffffff0000000000000000000000000000000000000000908116928c1692909217905593517f405787fa12a823e0f2b7631cc41b3ba8828b3321ca811111fa75cd3aa3bb5ad0870180548616918b1691909117905591517f405787fa12a823e0f2b7631cc41b3ba8828b3321ca811111fa75cd3aa3bb5ad19095018054909316948816949094179091555487519485529284015292169381019390935290917ff6d53c78c84276375332d8c7000b21b8336cab7d7a4a09ffc4a2be6c9787e32a910160405180910390a15050505050565b60606002805480602002602001604051908101604052809291908181526020016000905b828210156102a157600084815260209081902060408051608081018252600486029092018054835260018082015473ffffffffffffffffffffffffffffffffffffffff9081168587015260028301548116938501939093526003909101549091166060830152908352909201910161022e565b50505050905090565b60005473ffffffffffffffffffffffffffffffffffffffff163314610330576040517f08c379a000000000000000000000000000000000000000000000000000000000815260206004820152601460248201527f796f75277265206e6f7420746865206f776e657200000000000000000000000060448201526064015b60405180910390fd5b6001546040517fd4358b1f00000000000000000000000000000000000000000000000000000000815273ffffffffffffffffffffffffffffffffffffffff8381166004830152600092169063d4358b1f90602401602060405180830381865afa1580156103a1573d6000803e3d6000fd5b505050506040513d601f19601f820116820180604052508101906103c59190610807565b905073ffffffffffffffffffffffffffffffffffffffff811661046a576040517f08c379a000000000000000000000000000000000000000000000000000000000815260206004820152602560248201527f536f72727920796f757220667269656e64206973206e6f74206f6e207768617460448201527f73446170700000000000000000000000000000000000000000000000000000006064820152608401610327565b6000338360405161047a906106df565b73ffffffffffffffffffffffffffffffffffffffff928316815291166020820152604001604051809103906000f0801580156104ba573d6000803e3d6000fd5b50604080516080810182524280825273ffffffffffffffffffffffffffffffffffffffff84811660208401819052338486018190528983166060860181905295517f50b3fb67000000000000000000000000000000000000000000000000000000008152600481019490945260248401919091526044830194909452606482019390935292935091908416906350b3fb6790608401600060405180830381600087803b15801561056957600080fd5b505af115801561057d573d6000803e3d6000fd5b50506002805460018101825560009190915283517f405787fa12a823e0f2b7631cc41b3ba8828b3321ca811111fa75cd3aa3bb5ace6004909202918201556020808501517f405787fa12a823e0f2b7631cc41b3ba8828b3321ca811111fa75cd3aa3bb5acf830180547fffffffffffffffffffffffff000000000000000000000000000000000000000090811673ffffffffffffffffffffffffffffffffffffffff938416179091556040808801517f405787fa12a823e0f2b7631cc41b3ba8828b3321ca811111fa75cd3aa3bb5ad08601805484169185169190911790556060808901517f405787fa12a823e0f2b7631cc41b3ba8828b3321ca811111fa75cd3aa3bb5ad1909601805490931695841695909517909155805188831681523393810193909352908916908201527ff6d53c78c84276375332d8c7000b21b8336cab7d7a4a09ffc4a2be6c9787e32a935001905060405180910390a150505050565b610c0f8061082583390190565b73ffffffffffffffffffffffffffffffffffffffff8116811461070e57600080fd5b50565b6000806000806080858703121561072757600080fd5b843593506020850135610739816106ec565b92506040850135610749816106ec565b91506060850135610759816106ec565b939692955090935050565b602080825282518282018190526000919060409081850190868401855b828110156107d6578151805185528681015173ffffffffffffffffffffffffffffffffffffffff9081168887015286820151811687870152606091820151169085015260809093019290850190600101610781565b5091979650505050505050565b6000602082840312156107f557600080fd5b8135610800816106ec565b9392505050565b60006020828403121561081957600080fd5b8151610800816106ec56fe608060405234801561001057600080fd5b50604051610c0f380380610c0f83398101604081905261002f9161007c565b600080546001600160a01b039384166001600160a01b031991821617909155600180549290931691161790556100af565b80516001600160a01b038116811461007757600080fd5b919050565b6000806040838503121561008f57600080fd5b61009883610060565b91506100a660208401610060565b90509250929050565b610b51806100be6000396000f3fe608060405234801561001057600080fd5b50600436106100675760003560e01c8063526bf76e11610050578063526bf76e146100c557806353f5e380146100da5780635e01eb5a146100ef57600080fd5b80631b88094d1461006c578063469c8110146100b0575b600080fd5b60015473ffffffffffffffffffffffffffffffffffffffff165b60405173ffffffffffffffffffffffffffffffffffffffff90911681526020015b60405180910390f35b6100c36100be366004610815565b61010d565b005b6100cd6104f1565b6040516100a791906109a5565b6100e261061d565b6040516100a791906109bf565b60005473ffffffffffffffffffffffffffffffffffffffff16610086565b60005473ffffffffffffffffffffffffffffffffffffffff1633148061014a575060015473ffffffffffffffffffffffffffffffffffffffff1633145b6101db576040517f08c379a000000000000000000000000000000000000000000000000000000000815260206004820152602a60248201527f596f752063616e277420706172746963697061746520746f207468697320636f60448201527f6e766572736174696f6e0000000000000000000000000000000000000000000060648201526084015b60405180910390fd5b60408051600081526020810180835281519020916101fb91849101610a3f565b6040516020818303038152906040528051906020012003610278576040517f08c379a000000000000000000000000000000000000000000000000000000000815260206004820152601060248201527f4d65737361676520697320656d7074790000000000000000000000000000000060448201526064016101d2565b60005473ffffffffffffffffffffffffffffffffffffffff1633036103c45760408051608081018252828152336020808301919091526001805473ffffffffffffffffffffffffffffffffffffffff1693830193909352426060830152600280549384018155600052815180519293849360049091027f405787fa12a823e0f2b7631cc41b3ba8828b3321ca811111fa75cd3aa3bb5ace019261031f92849291019061074d565b506020820151600182810180547fffffffffffffffffffffffff000000000000000000000000000000000000000090811673ffffffffffffffffffffffffffffffffffffffff94851617909155604080860151600286018054909316908516179091556060909401516003909301929092559054915191169033907fb3eade51ac74e59b110a9e8b756cfacc4e791d1293c83a1f69f2384373bb70ec90600090a35050565b60408051608081018252828152336020808301919091526000805473ffffffffffffffffffffffffffffffffffffffff1693830193909352426060830152600280546001810182559352815180519293849360049091027f405787fa12a823e0f2b7631cc41b3ba8828b3321ca811111fa75cd3aa3bb5ace019261044c92849291019061074d565b5060208201516001820180547fffffffffffffffffffffffff000000000000000000000000000000000000000090811673ffffffffffffffffffffffffffffffffffffffff9384161790915560408085015160028501805490931690841617909155606090930151600390920191909155600080549251929091169133917fb3eade51ac74e59b110a9e8b756cfacc4e791d1293c83a1f69f2384373bb70ec91a35050565b6040805160808101825260608082526000602083018190529282018390528101919091526002805461052590600190610a5b565b8154811061053557610535610a99565b906000526020600020906004020160405180608001604052908160008201805461055e90610ac8565b80601f016020809104026020016040519081016040528092919081815260200182805461058a90610ac8565b80156105d75780601f106105ac576101008083540402835291602001916105d7565b820191906000526020600020905b8154815290600101906020018083116105ba57829003601f168201915b5050509183525050600182015473ffffffffffffffffffffffffffffffffffffffff90811660208301526002830154166040820152600390910154606090910152919050565b60606002805480602002602001604051908101604052809291908181526020016000905b82821015610744578382906000526020600020906004020160405180608001604052908160008201805461067490610ac8565b80601f01602080910402602001604051908101604052809291908181526020018280546106a090610ac8565b80156106ed5780601f106106c2576101008083540402835291602001916106ed565b820191906000526020600020905b8154815290600101906020018083116106d057829003601f168201915b505050918352505060018281015473ffffffffffffffffffffffffffffffffffffffff9081166020808501919091526002850154909116604084015260039093015460609092019190915291835292019101610641565b50505050905090565b82805461075990610ac8565b90600052602060002090601f01602090048101928261077b57600085556107c1565b82601f1061079457805160ff19168380011785556107c1565b828001600101855582156107c1579182015b828111156107c15782518255916020019190600101906107a6565b506107cd9291506107d1565b5090565b5b808211156107cd57600081556001016107d2565b7f4e487b7100000000000000000000000000000000000000000000000000000000600052604160045260246000fd5b60006020828403121561082757600080fd5b813567ffffffffffffffff8082111561083f57600080fd5b818401915084601f83011261085357600080fd5b813581811115610865576108656107e6565b604051601f82017fffffffffffffffffffffffffffffffffffffffffffffffffffffffffffffffe0908116603f011681019083821181831017156108ab576108ab6107e6565b816040528281528760208487010111156108c457600080fd5b826020860160208301376000928101602001929092525095945050505050565b60005b838110156108ff5781810151838201526020016108e7565b8381111561090e576000848401525b50505050565b600081516080845280518060808601526109358160a08701602085016108e4565b6020840151915073ffffffffffffffffffffffffffffffffffffffff8083166020870152806040860151166040870152506060840151606086015260a07fffffffffffffffffffffffffffffffffffffffffffffffffffffffffffffffe0601f8301168601019250505092915050565b6020815260006109b86020830184610914565b9392505050565b6000602080830181845280855180835260408601915060408160051b870101925083870160005b82811015610a32577fffffffffffffffffffffffffffffffffffffffffffffffffffffffffffffffc0888603018452610a20858351610914565b945092850192908501906001016109e6565b5092979650505050505050565b60008251610a518184602087016108e4565b9190910192915050565b600082821015610a94577f4e487b7100000000000000000000000000000000000000000000000000000000600052601160045260246000fd5b500390565b7f4e487b7100000000000000000000000000000000000000000000000000000000600052603260045260246000fd5b600181811c90821680610adc57607f821691505b602082108103610b15577f4e487b7100000000000000000000000000000000000000000000000000000000600052602260045260246000fd5b5091905056fea264697066735822122082ffe218b457d98ef5e5d8d90e43ac9d51b71449e981e9aada5ceb52ed8a516064736f6c634300080d0033a2646970667358221220bcc8873eda5fc8b4e7a9b5a792c153904489c982f76319a048ddb323ddf87e6c64736f6c634300080d0033",
  "immutableReferences": {},
  "source": "// SPDX-License-Identifier: MIT\n///@author Adam Korchane\npragma solidity 0.8.13;\nimport \"./Conversation.sol\";\nimport \"./WhatsDapp.sol\";\n\n///@notice this contract manage all user's conversations\ncontract Manager{\n    event NewConversation(Conversation _conversation, address _sender, address _to);\n\n    address user;\n    WhatsDapp whatsDapp;\n    struct Conv{\n        uint startedAt;\n        Conversation conversation;\n        address sender;\n        address to;\n    }\n\n    Conv[] conversations;\n\n    constructor(address _user, address _contrat){\n        user = _user;\n        whatsDapp = WhatsDapp(_contrat);\n    }\n\n    ///@notice create a new conversation and push the conversation to the _to manager\n    function newConv(address _to)external{\n        require(msg.sender == user, \"you're not the owner\");\n        Manager tmpManager = whatsDapp.getManagerOf(_to);\n        require(address(tmpManager) != address(0), \"Sorry your friend is not on whatsDapp\");\n        Conversation _conv = new Conversation(msg.sender, _to);\n        Conv memory tmp = Conv(block.timestamp, _conv, msg.sender, _to);\n        tmpManager.pushConv(block.timestamp, _conv, _to, msg.sender);\n        conversations.push(tmp);\n        emit NewConversation(_conv, msg.sender, _to);\n    }\n    ///@notice push conversation in this contrat\n    ///@dev used by other managers\n    function pushConv(uint _startedAt,Conversation _conversation, address _sender, address _to)public{\n        Conv memory _conv = Conv(_startedAt, _conversation, _sender, _to);\n        conversations.push(_conv);\n        emit NewConversation(_conversation, _sender, user);\n    }\n    \n    ///@return all conversations\n    function getConvs()external view returns(Conv [] memory){\n        return conversations;\n    }\n\n}",
  "sourcePath": "/home/amsteradams/developpement/WhatsDapp/contracts/Manager.sol",
  "compiler": {
    "name": "solc",
    "version": "0.8.13+commit.abaa5c0e.Emscripten.clang"
  },
  "schemaVersion": "3.4.6",
  "updatedAt": "2022-05-23T13:14:04.948Z",
  "devdoc": {
    "kind": "dev",
    "methods": {
      "getConvs()": {
        "returns": {
          "_0": "all conversations"
        }
      },
      "pushConv(uint256,address,address,address)": {
        "details": "used by other managers"
      }
    },
    "version": 1
  },
  "userdoc": {
    "kind": "user",
    "methods": {
      "newConv(address)": {
        "notice": "create a new conversation and push the conversation to the _to manager"
      },
      "pushConv(uint256,address,address,address)": {
        "notice": "push conversation in this contrat"
      }
    },
    "notice": "this contract manage all user's conversations",
    "version": 1
  }
}