{
  "contractName": "Manager",
  "abi": [
    {
      "inputs": [
        {
          "internalType": "address",
          "name": "_user",
          "type": "address"
        },
        {
          "internalType": "address",
          "name": "_contrat",
          "type": "address"
        }
      ],
      "stateMutability": "nonpayable",
      "type": "constructor"
    },
    {
      "anonymous": false,
      "inputs": [
        {
          "indexed": false,
          "internalType": "contract Conversation",
          "name": "_conversation",
          "type": "address"
        },
        {
          "indexed": false,
          "internalType": "address",
          "name": "_sender",
          "type": "address"
        },
        {
          "indexed": false,
          "internalType": "address",
          "name": "_to",
          "type": "address"
        }
      ],
      "name": "NewConversation",
      "type": "event"
    },
    {
      "inputs": [
        {
          "internalType": "address",
          "name": "_to",
          "type": "address"
        }
      ],
      "name": "newConv",
      "outputs": [],
      "stateMutability": "nonpayable",
      "type": "function"
    },
    {
      "inputs": [
        {
          "internalType": "uint256",
          "name": "_startedAt",
          "type": "uint256"
        },
        {
          "internalType": "contract Conversation",
          "name": "_conversation",
          "type": "address"
        },
        {
          "internalType": "address",
          "name": "_sender",
          "type": "address"
        },
        {
          "internalType": "address",
          "name": "_to",
          "type": "address"
        }
      ],
      "name": "pushConv",
      "outputs": [],
      "stateMutability": "nonpayable",
      "type": "function"
    },
    {
      "inputs": [],
      "name": "getConvs",
      "outputs": [
        {
          "components": [
            {
              "internalType": "uint256",
              "name": "startedAt",
              "type": "uint256"
            },
            {
              "internalType": "contract Conversation",
              "name": "conversation",
              "type": "address"
            },
            {
              "internalType": "address",
              "name": "sender",
              "type": "address"
            },
            {
              "internalType": "address",
              "name": "to",
              "type": "address"
            }
          ],
          "internalType": "struct Manager.Conv[]",
          "name": "",
          "type": "tuple[]"
        }
      ],
      "stateMutability": "view",
      "type": "function"
    }
  ],
  "bytecode": "0x608060405234801561001057600080fd5b5060405161148b38038061148b83398101604081905261002f9161007c565b600080546001600160a01b039384166001600160a01b031991821617909155600180549290931691161790556100af565b80516001600160a01b038116811461007757600080fd5b919050565b6000806040838503121561008f57600080fd5b61009883610060565b91506100a660208401610060565b90509250929050565b6113cd806100be6000396000f3fe608060405234801561001057600080fd5b50600436106100415760003560e01c806350b3fb67146100465780635b18e3851461018d578063687c7a3f146101ab575b600080fd5b61018b6100543660046106c5565b6040805160808101825294855273ffffffffffffffffffffffffffffffffffffffff938416602086019081529284169085019081529083166060850190815260028054600181018255600091909152945160049095027f405787fa12a823e0f2b7631cc41b3ba8828b3321ca811111fa75cd3aa3bb5ace81019590955591517f405787fa12a823e0f2b7631cc41b3ba8828b3321ca811111fa75cd3aa3bb5acf850180549185167fffffffffffffffffffffffff000000000000000000000000000000000000000092831617905590517f405787fa12a823e0f2b7631cc41b3ba8828b3321ca811111fa75cd3aa3bb5ad08501805491851691831691909117905590517f405787fa12a823e0f2b7631cc41b3ba8828b3321ca811111fa75cd3aa3bb5ad19093018054939092169216919091179055565b005b6101956101be565b6040516101a29190610718565b60405180910390f35b61018b6101b9366004610797565b61025e565b60606002805480602002602001604051908101604052809291908181526020016000905b8282101561025557600084815260209081902060408051608081018252600486029092018054835260018082015473ffffffffffffffffffffffffffffffffffffffff908116858701526002830154811693850193909352600390910154909116606083015290835290920191016101e2565b50505050905090565b60005473ffffffffffffffffffffffffffffffffffffffff1633146102e4576040517f08c379a000000000000000000000000000000000000000000000000000000000815260206004820152601460248201527f796f75277265206e6f7420746865206f776e657200000000000000000000000060448201526064015b60405180910390fd5b6001546040517fd4358b1f00000000000000000000000000000000000000000000000000000000815273ffffffffffffffffffffffffffffffffffffffff8381166004830152600092169063d4358b1f90602401602060405180830381865afa158015610355573d6000803e3d6000fd5b505050506040513d601f19601f8201168201806040525081019061037991906107bb565b905073ffffffffffffffffffffffffffffffffffffffff811661041e576040517f08c379a000000000000000000000000000000000000000000000000000000000815260206004820152602560248201527f536f72727920796f757220667269656e64206973206e6f74206f6e207768617460448201527f734461707000000000000000000000000000000000000000000000000000000060648201526084016102db565b6000338360405161042e90610693565b73ffffffffffffffffffffffffffffffffffffffff928316815291166020820152604001604051809103906000f08015801561046e573d6000803e3d6000fd5b50604080516080810182524280825273ffffffffffffffffffffffffffffffffffffffff84811660208401819052338486018190528983166060860181905295517f50b3fb67000000000000000000000000000000000000000000000000000000008152600481019490945260248401919091526044830194909452606482019390935292935091908416906350b3fb6790608401600060405180830381600087803b15801561051d57600080fd5b505af1158015610531573d6000803e3d6000fd5b50506002805460018101825560009190915283517f405787fa12a823e0f2b7631cc41b3ba8828b3321ca811111fa75cd3aa3bb5ace6004909202918201556020808501517f405787fa12a823e0f2b7631cc41b3ba8828b3321ca811111fa75cd3aa3bb5acf830180547fffffffffffffffffffffffff000000000000000000000000000000000000000090811673ffffffffffffffffffffffffffffffffffffffff938416179091556040808801517f405787fa12a823e0f2b7631cc41b3ba8828b3321ca811111fa75cd3aa3bb5ad08601805484169185169190911790556060808901517f405787fa12a823e0f2b7631cc41b3ba8828b3321ca811111fa75cd3aa3bb5ad1909601805490931695841695909517909155805188831681523393810193909352908916908201527ff6d53c78c84276375332d8c7000b21b8336cab7d7a4a09ffc4a2be6c9787e32a935001905060405180910390a150505050565b610bbf806107d983390190565b73ffffffffffffffffffffffffffffffffffffffff811681146106c257600080fd5b50565b600080600080608085870312156106db57600080fd5b8435935060208501356106ed816106a0565b925060408501356106fd816106a0565b9150606085013561070d816106a0565b939692955090935050565b602080825282518282018190526000919060409081850190868401855b8281101561078a578151805185528681015173ffffffffffffffffffffffffffffffffffffffff9081168887015286820151811687870152606091820151169085015260809093019290850190600101610735565b5091979650505050505050565b6000602082840312156107a957600080fd5b81356107b4816106a0565b9392505050565b6000602082840312156107cd57600080fd5b81516107b4816106a056fe608060405234801561001057600080fd5b50604051610bbf380380610bbf83398101604081905261002f9161007c565b600080546001600160a01b039384166001600160a01b031991821617909155600180549290931691161790556100af565b80516001600160a01b038116811461007757600080fd5b919050565b6000806040838503121561008f57600080fd5b61009883610060565b91506100a660208401610060565b90509250929050565b610b01806100be6000396000f3fe608060405234801561001057600080fd5b506004361061004c5760003560e01c80631b88094d14610051578063469c81101461007e578063526bf76e1461009357806353f5e380146100a8575b600080fd5b60015460405173ffffffffffffffffffffffffffffffffffffffff90911681526020015b60405180910390f35b61009161008c3660046107c5565b6100bd565b005b61009b6104a1565b6040516100759190610955565b6100b06105cd565b604051610075919061096f565b60005473ffffffffffffffffffffffffffffffffffffffff163314806100fa575060015473ffffffffffffffffffffffffffffffffffffffff1633145b61018b576040517f08c379a000000000000000000000000000000000000000000000000000000000815260206004820152602a60248201527f596f752063616e277420706172746963697061746520746f207468697320636f60448201527f6e766572736174696f6e0000000000000000000000000000000000000000000060648201526084015b60405180910390fd5b60408051600081526020810180835281519020916101ab918491016109ef565b6040516020818303038152906040528051906020012003610228576040517f08c379a000000000000000000000000000000000000000000000000000000000815260206004820152601060248201527f4d65737361676520697320656d707479000000000000000000000000000000006044820152606401610182565b60005473ffffffffffffffffffffffffffffffffffffffff1633036103745760408051608081018252828152336020808301919091526001805473ffffffffffffffffffffffffffffffffffffffff1693830193909352426060830152600280549384018155600052815180519293849360049091027f405787fa12a823e0f2b7631cc41b3ba8828b3321ca811111fa75cd3aa3bb5ace01926102cf9284929101906106fd565b506020820151600182810180547fffffffffffffffffffffffff000000000000000000000000000000000000000090811673ffffffffffffffffffffffffffffffffffffffff94851617909155604080860151600286018054909316908516179091556060909401516003909301929092559054915191169033907fb3eade51ac74e59b110a9e8b756cfacc4e791d1293c83a1f69f2384373bb70ec90600090a35050565b60408051608081018252828152336020808301919091526000805473ffffffffffffffffffffffffffffffffffffffff1693830193909352426060830152600280546001810182559352815180519293849360049091027f405787fa12a823e0f2b7631cc41b3ba8828b3321ca811111fa75cd3aa3bb5ace01926103fc9284929101906106fd565b5060208201516001820180547fffffffffffffffffffffffff000000000000000000000000000000000000000090811673ffffffffffffffffffffffffffffffffffffffff9384161790915560408085015160028501805490931690841617909155606090930151600390920191909155600080549251929091169133917fb3eade51ac74e59b110a9e8b756cfacc4e791d1293c83a1f69f2384373bb70ec91a35050565b604080516080810182526060808252600060208301819052928201839052810191909152600280546104d590600190610a0b565b815481106104e5576104e5610a49565b906000526020600020906004020160405180608001604052908160008201805461050e90610a78565b80601f016020809104026020016040519081016040528092919081815260200182805461053a90610a78565b80156105875780601f1061055c57610100808354040283529160200191610587565b820191906000526020600020905b81548152906001019060200180831161056a57829003601f168201915b5050509183525050600182015473ffffffffffffffffffffffffffffffffffffffff90811660208301526002830154166040820152600390910154606090910152919050565b60606002805480602002602001604051908101604052809291908181526020016000905b828210156106f4578382906000526020600020906004020160405180608001604052908160008201805461062490610a78565b80601f016020809104026020016040519081016040528092919081815260200182805461065090610a78565b801561069d5780601f106106725761010080835404028352916020019161069d565b820191906000526020600020905b81548152906001019060200180831161068057829003601f168201915b505050918352505060018281015473ffffffffffffffffffffffffffffffffffffffff90811660208085019190915260028501549091166040840152600390930154606090920191909152918352920191016105f1565b50505050905090565b82805461070990610a78565b90600052602060002090601f01602090048101928261072b5760008555610771565b82601f1061074457805160ff1916838001178555610771565b82800160010185558215610771579182015b82811115610771578251825591602001919060010190610756565b5061077d929150610781565b5090565b5b8082111561077d5760008155600101610782565b7f4e487b7100000000000000000000000000000000000000000000000000000000600052604160045260246000fd5b6000602082840312156107d757600080fd5b813567ffffffffffffffff808211156107ef57600080fd5b818401915084601f83011261080357600080fd5b81358181111561081557610815610796565b604051601f82017fffffffffffffffffffffffffffffffffffffffffffffffffffffffffffffffe0908116603f0116810190838211818310171561085b5761085b610796565b8160405282815287602084870101111561087457600080fd5b826020860160208301376000928101602001929092525095945050505050565b60005b838110156108af578181015183820152602001610897565b838111156108be576000848401525b50505050565b600081516080845280518060808601526108e58160a0870160208501610894565b6020840151915073ffffffffffffffffffffffffffffffffffffffff8083166020870152806040860151166040870152506060840151606086015260a07fffffffffffffffffffffffffffffffffffffffffffffffffffffffffffffffe0601f8301168601019250505092915050565b60208152600061096860208301846108c4565b9392505050565b6000602080830181845280855180835260408601915060408160051b870101925083870160005b828110156109e2577fffffffffffffffffffffffffffffffffffffffffffffffffffffffffffffffc08886030184526109d08583516108c4565b94509285019290850190600101610996565b5092979650505050505050565b60008251610a01818460208701610894565b9190910192915050565b600082821015610a44577f4e487b7100000000000000000000000000000000000000000000000000000000600052601160045260246000fd5b500390565b7f4e487b7100000000000000000000000000000000000000000000000000000000600052603260045260246000fd5b600181811c90821680610a8c57607f821691505b602082108103610ac5577f4e487b7100000000000000000000000000000000000000000000000000000000600052602260045260246000fd5b5091905056fea2646970667358221220607191cddfb0bef4647deba58a617ffc6df7173587f027379039b1a15a02369b64736f6c634300080d0033a2646970667358221220c4df61da89bf2995577aac6f3e071dcd55a7e306220ff3c3b36c3c67d69bacd164736f6c634300080d0033",
  "immutableReferences": {},
  "source": "// SPDX-License-Identifier: MIT\n///@author Adam Korchane\npragma solidity 0.8.13;\nimport \"./Conversation.sol\";\nimport \"./WhatsDapp.sol\";\n\n///@notice this contract manage all user's conversations\ncontract Manager{\n    event NewConversation(Conversation _conversation, address _sender, address _to);\n\n    address user;\n    WhatsDapp whatsDapp;\n    struct Conv{\n        uint startedAt;\n        Conversation conversation;\n        address sender;\n        address to;\n    }\n\n    Conv[] conversations;\n\n    constructor(address _user, address _contrat){\n        user = _user;\n        whatsDapp = WhatsDapp(_contrat);\n    }\n\n    ///@notice create a new conversation and push the conversation to the _to manager\n    function newConv(address _to)external{\n        require(msg.sender == user, \"you're not the owner\");\n        Manager tmpManager = whatsDapp.getManagerOf(_to);\n        require(address(tmpManager) != address(0), \"Sorry your friend is not on whatsDapp\");\n        Conversation _conv = new Conversation(msg.sender, _to);\n        Conv memory tmp = Conv(block.timestamp, _conv, msg.sender, _to);\n        tmpManager.pushConv(block.timestamp, _conv, _to, msg.sender);\n        conversations.push(tmp);\n        emit NewConversation(_conv, msg.sender, _to);\n    }\n    ///@notice push conversation in this contrat\n    ///@dev used by other managers\n    function pushConv(uint _startedAt,Conversation _conversation, address _sender, address _to)public{\n        Conv memory _conv = Conv(_startedAt, _conversation, _sender, _to);\n        conversations.push(_conv);\n    }\n    \n    ///@return all conversations\n    function getConvs()external view returns(Conv [] memory){\n        return conversations;\n    }\n\n}",
  "sourcePath": "/home/amsteradams/developpement/WhatsDapp/contracts/Manager.sol",
  "compiler": {
    "name": "solc",
    "version": "0.8.13+commit.abaa5c0e.Emscripten.clang"
  },
  "schemaVersion": "3.4.6",
  "updatedAt": "2022-05-22T14:29:13.225Z",
  "devdoc": {
    "kind": "dev",
    "methods": {
      "getConvs()": {
        "returns": {
          "_0": "all conversations"
        }
      },
      "pushConv(uint256,address,address,address)": {
        "details": "used by other managers"
      }
    },
    "version": 1
  },
  "userdoc": {
    "kind": "user",
    "methods": {
      "newConv(address)": {
        "notice": "create a new conversation and push the conversation to the _to manager"
      },
      "pushConv(uint256,address,address,address)": {
        "notice": "push conversation in this contrat"
      }
    },
    "notice": "this contract manage all user's conversations",
    "version": 1
  }
}