{
  "contractName": "Manager",
  "abi": [
    {
      "inputs": [
        {
          "internalType": "address",
          "name": "_user",
          "type": "address"
        },
        {
          "internalType": "address",
          "name": "_contrat",
          "type": "address"
        }
      ],
      "stateMutability": "nonpayable",
      "type": "constructor"
    },
    {
      "anonymous": false,
      "inputs": [
        {
          "indexed": false,
          "internalType": "contract Conversation",
          "name": "_conversation",
          "type": "address"
        },
        {
          "indexed": false,
          "internalType": "address",
          "name": "_sender",
          "type": "address"
        },
        {
          "indexed": false,
          "internalType": "address",
          "name": "_to",
          "type": "address"
        }
      ],
      "name": "NewConversation",
      "type": "event"
    },
    {
      "inputs": [
        {
          "internalType": "address",
          "name": "_to",
          "type": "address"
        }
      ],
      "name": "newConv",
      "outputs": [],
      "stateMutability": "nonpayable",
      "type": "function"
    }
  ],
  "bytecode": "0x608060405234801561001057600080fd5b50604051610d7e380380610d7e83398101604081905261002f9161007c565b600080546001600160a01b039384166001600160a01b031991821617909155600180549290931691161790556100af565b80516001600160a01b038116811461007757600080fd5b919050565b6000806040838503121561008f57600080fd5b61009883610060565b91506100a660208401610060565b90509250929050565b610cc0806100be6000396000f3fe608060405234801561001057600080fd5b506004361061002b5760003560e01c8063687c7a3f14610030575b600080fd5b61004361003e3660046102a4565b610045565b005b60005473ffffffffffffffffffffffffffffffffffffffff1633146100ca576040517f08c379a000000000000000000000000000000000000000000000000000000000815260206004820152601460248201527f796f75277265206e6f7420746865206f776e6572000000000000000000000000604482015260640160405180910390fd5b600033826040516100da90610297565b73ffffffffffffffffffffffffffffffffffffffff928316815291166020820152604001604051809103906000f08015801561011a573d6000803e3d6000fd5b506040805160808101825242815273ffffffffffffffffffffffffffffffffffffffff8381166020808401828152338587018181528a86166060808901828152600280546001810182556000919091528a517f405787fa12a823e0f2b7631cc41b3ba8828b3321ca811111fa75cd3aa3bb5ace60049092029182015595517f405787fa12a823e0f2b7631cc41b3ba8828b3321ca811111fa75cd3aa3bb5acf870180547fffffffffffffffffffffffff0000000000000000000000000000000000000000908116928c1692909217905593517f405787fa12a823e0f2b7631cc41b3ba8828b3321ca811111fa75cd3aa3bb5ad0870180548616918b16919091179055517f405787fa12a823e0f2b7631cc41b3ba8828b3321ca811111fa75cd3aa3bb5ad190950180549093169490971693909317905586519384529183019190915293810193909352929350917ff6d53c78c84276375332d8c7000b21b8336cab7d7a4a09ffc4a2be6c9787e32a910160405180910390a1505050565b6109a9806102e283390190565b6000602082840312156102b657600080fd5b813573ffffffffffffffffffffffffffffffffffffffff811681146102da57600080fd5b939250505056fe608060405234801561001057600080fd5b506040516109a93803806109a983398101604081905261002f9161007c565b600080546001600160a01b039384166001600160a01b031991821617909155600180549290931691161790556100af565b80516001600160a01b038116811461007757600080fd5b919050565b6000806040838503121561008f57600080fd5b61009883610060565b91506100a660208401610060565b90509250929050565b6108eb806100be6000396000f3fe608060405234801561001057600080fd5b50600436106100365760003560e01c8063469c81101461003b57806353f5e38014610050575b600080fd5b61004e61004936600461064a565b61006e565b005b610058610452565b6040516100659190610749565b60405180910390f35b60005473ffffffffffffffffffffffffffffffffffffffff163314806100ab575060015473ffffffffffffffffffffffffffffffffffffffff1633145b61013c576040517f08c379a000000000000000000000000000000000000000000000000000000000815260206004820152602a60248201527f596f752063616e277420706172746963697061746520746f207468697320636f60448201527f6e766572736174696f6e0000000000000000000000000000000000000000000060648201526084015b60405180910390fd5b604080516000815260208101808352815190209161015c91849101610846565b60405160208183030381529060405280519060200120036101d9576040517f08c379a000000000000000000000000000000000000000000000000000000000815260206004820152601060248201527f4d65737361676520697320656d707479000000000000000000000000000000006044820152606401610133565b60005473ffffffffffffffffffffffffffffffffffffffff1633036103255760408051608081018252828152336020808301919091526001805473ffffffffffffffffffffffffffffffffffffffff1693830193909352426060830152600280549384018155600052815180519293849360049091027f405787fa12a823e0f2b7631cc41b3ba8828b3321ca811111fa75cd3aa3bb5ace0192610280928492910190610582565b506020820151600182810180547fffffffffffffffffffffffff000000000000000000000000000000000000000090811673ffffffffffffffffffffffffffffffffffffffff94851617909155604080860151600286018054909316908516179091556060909401516003909301929092559054915191169033907fb3eade51ac74e59b110a9e8b756cfacc4e791d1293c83a1f69f2384373bb70ec90600090a35050565b60408051608081018252828152336020808301919091526000805473ffffffffffffffffffffffffffffffffffffffff1693830193909352426060830152600280546001810182559352815180519293849360049091027f405787fa12a823e0f2b7631cc41b3ba8828b3321ca811111fa75cd3aa3bb5ace01926103ad928492910190610582565b5060208201516001820180547fffffffffffffffffffffffff000000000000000000000000000000000000000090811673ffffffffffffffffffffffffffffffffffffffff9384161790915560408085015160028501805490931690841617909155606090930151600390920191909155600080549251929091169133917fb3eade51ac74e59b110a9e8b756cfacc4e791d1293c83a1f69f2384373bb70ec91a35050565b60606002805480602002602001604051908101604052809291908181526020016000905b8282101561057957838290600052602060002090600402016040518060800160405290816000820180546104a990610862565b80601f01602080910402602001604051908101604052809291908181526020018280546104d590610862565b80156105225780601f106104f757610100808354040283529160200191610522565b820191906000526020600020905b81548152906001019060200180831161050557829003601f168201915b505050918352505060018281015473ffffffffffffffffffffffffffffffffffffffff9081166020808501919091526002850154909116604084015260039093015460609092019190915291835292019101610476565b50505050905090565b82805461058e90610862565b90600052602060002090601f0160209004810192826105b057600085556105f6565b82601f106105c957805160ff19168380011785556105f6565b828001600101855582156105f6579182015b828111156105f65782518255916020019190600101906105db565b50610602929150610606565b5090565b5b808211156106025760008155600101610607565b7f4e487b7100000000000000000000000000000000000000000000000000000000600052604160045260246000fd5b60006020828403121561065c57600080fd5b813567ffffffffffffffff8082111561067457600080fd5b818401915084601f83011261068857600080fd5b81358181111561069a5761069a61061b565b604051601f82017fffffffffffffffffffffffffffffffffffffffffffffffffffffffffffffffe0908116603f011681019083821181831017156106e0576106e061061b565b816040528281528760208487010111156106f957600080fd5b826020860160208301376000928101602001929092525095945050505050565b60005b8381101561073457818101518382015260200161071c565b83811115610743576000848401525b50505050565b60006020808301818452808551808352604092508286019150828160051b87010184880160005b83811015610838577fffffffffffffffffffffffffffffffffffffffffffffffffffffffffffffffc08984030185528151608081518186528051808388015260a092506107c2818489018d8501610719565b838b015173ffffffffffffffffffffffffffffffffffffffff908116888d01528a850151168a880152606093840151938701939093525095880195601f919091017fffffffffffffffffffffffffffffffffffffffffffffffffffffffffffffffe0169093019092019190860190600101610770565b509098975050505050505050565b60008251610858818460208701610719565b9190910192915050565b600181811c9082168061087657607f821691505b6020821081036108af577f4e487b7100000000000000000000000000000000000000000000000000000000600052602260045260246000fd5b5091905056fea26469706673582212202bac5a5ba666edd4a44ad847c399561cfad4745e2f8e6123f0aa7067a218a5f064736f6c634300080d0033a264697066735822122003638615bcbaab71a8c8ba9cb45daa4b5ac28b1bf87dd89dad74d72cc1885cdb64736f6c634300080d0033",
  "immutableReferences": {},
  "source": "// SPDX-License-Identifier: MIT\n///@author Adam Korchane\npragma solidity 0.8.13;\nimport \"./Conversation.sol\";\nimport \"./WhatsDapp.sol\";\n\n///@notice this contract manage all user's conversations\ncontract Manager{\n    event NewConversation(Conversation _conversation, address _sender, address _to);\n\n    address user;\n    WhatsDapp whatsDapp;\n    struct Conv{\n        uint startedAt;\n        Conversation conversation;\n        address sender;\n        address to;\n    }\n\n    Conv[] conversations;\n\n    constructor(address _user, address _contrat){\n        user = _user;\n        whatsDapp = WhatsDapp(_contrat);\n    }\n\n\n    ///@notice create a new conversation\n    function newConv(address _to)external{\n        require(msg.sender == user, \"you're not the owner\");\n        Conversation _conv = new Conversation(msg.sender, _to);\n        Conv memory tmp = Conv(block.timestamp, _conv, msg.sender, _to);\n        conversations.push(tmp);\n        emit NewConversation(_conv, msg.sender, _to);\n    }\n}",
  "sourcePath": "/home/amsteradams/developpement/WhatsDapp/contracts/Manager.sol",
  "compiler": {
    "name": "solc",
    "version": "0.8.13+commit.abaa5c0e.Emscripten.clang"
  },
  "schemaVersion": "3.4.6",
  "updatedAt": "2022-05-18T17:24:01.921Z",
  "devdoc": {
    "kind": "dev",
    "methods": {},
    "version": 1
  },
  "userdoc": {
    "kind": "user",
    "methods": {
      "newConv(address)": {
        "notice": "create a new conversation"
      }
    },
    "notice": "this contract manage all user's conversations",
    "version": 1
  }
}