{
  "contractName": "WhatsDapp",
  "abi": [
    {
      "anonymous": false,
      "inputs": [
        {
          "indexed": true,
          "internalType": "address",
          "name": "_user",
          "type": "address"
        },
        {
          "indexed": false,
          "internalType": "contract Manager",
          "name": "_manager",
          "type": "address"
        }
      ],
      "name": "NewUser",
      "type": "event"
    },
    {
      "inputs": [],
      "name": "newAccount",
      "outputs": [],
      "stateMutability": "nonpayable",
      "type": "function"
    },
    {
      "inputs": [
        {
          "internalType": "address",
          "name": "_addr",
          "type": "address"
        }
      ],
      "name": "getManagerOf",
      "outputs": [
        {
          "internalType": "contract Manager",
          "name": "",
          "type": "address"
        }
      ],
      "stateMutability": "view",
      "type": "function",
      "constant": true
    }
  ],
  "bytecode": "0x608060405234801561001057600080fd5b506117ac806100206000396000f3fe608060405234801561001057600080fd5b50600436106100365760003560e01c8063bf335e621461003b578063d4358b1f14610045575b600080fd5b610043610081565b005b6100586100533660046102dd565b6101ee565b60405173ffffffffffffffffffffffffffffffffffffffff909116815260200160405180910390f35b3360009081526020819052604090205473ffffffffffffffffffffffffffffffffffffffff1615610113576040517f08c379a000000000000000000000000000000000000000000000000000000000815260206004820152601b60248201527f796f7520616c7265616479206861766520616e206163636f756e74000000000060448201526064015b60405180910390fd5b60003330604051610123906102d0565b73ffffffffffffffffffffffffffffffffffffffff928316815291166020820152604001604051809103906000f080158015610163573d6000803e3d6000fd5b50336000818152602081815260409182902080547fffffffffffffffffffffffff00000000000000000000000000000000000000001673ffffffffffffffffffffffffffffffffffffffff8616908117909155915191825292935090917fff3eabe1067b08ba8af3e8d3191eebeae9b35de7a7aeee40f2ad1ceb6a887607910160405180910390a250565b73ffffffffffffffffffffffffffffffffffffffff8181166000908152602081905260408120549091166102a4576040517f08c379a000000000000000000000000000000000000000000000000000000000815260206004820152602560248201527f536f72727920796f757220667269656e64206973206e6f74206f6e205768617460448201527f7344617070000000000000000000000000000000000000000000000000000000606482015260840161010a565b5073ffffffffffffffffffffffffffffffffffffffff9081166000908152602081905260409020541690565b61145c8061031b83390190565b6000602082840312156102ef57600080fd5b813573ffffffffffffffffffffffffffffffffffffffff8116811461031357600080fd5b939250505056fe608060405234801561001057600080fd5b5060405161145c38038061145c83398101604081905261002f9161007c565b600080546001600160a01b039384166001600160a01b031991821617909155600180549290931691161790556100af565b80516001600160a01b038116811461007757600080fd5b919050565b6000806040838503121561008f57600080fd5b61009883610060565b91506100a660208401610060565b90509250929050565b61139e806100be6000396000f3fe608060405234801561001057600080fd5b50600436106100415760003560e01c806350b3fb67146100465780635b18e3851461018d578063687c7a3f146101ab575b600080fd5b61018b6100543660046106c5565b6040805160808101825294855273ffffffffffffffffffffffffffffffffffffffff938416602086019081529284169085019081529083166060850190815260028054600181018255600091909152945160049095027f405787fa12a823e0f2b7631cc41b3ba8828b3321ca811111fa75cd3aa3bb5ace81019590955591517f405787fa12a823e0f2b7631cc41b3ba8828b3321ca811111fa75cd3aa3bb5acf850180549185167fffffffffffffffffffffffff000000000000000000000000000000000000000092831617905590517f405787fa12a823e0f2b7631cc41b3ba8828b3321ca811111fa75cd3aa3bb5ad08501805491851691831691909117905590517f405787fa12a823e0f2b7631cc41b3ba8828b3321ca811111fa75cd3aa3bb5ad19093018054939092169216919091179055565b005b6101956101be565b6040516101a29190610718565b60405180910390f35b61018b6101b9366004610797565b61025e565b60606002805480602002602001604051908101604052809291908181526020016000905b8282101561025557600084815260209081902060408051608081018252600486029092018054835260018082015473ffffffffffffffffffffffffffffffffffffffff908116858701526002830154811693850193909352600390910154909116606083015290835290920191016101e2565b50505050905090565b60005473ffffffffffffffffffffffffffffffffffffffff1633146102e4576040517f08c379a000000000000000000000000000000000000000000000000000000000815260206004820152601460248201527f796f75277265206e6f7420746865206f776e657200000000000000000000000060448201526064015b60405180910390fd5b6001546040517fd4358b1f00000000000000000000000000000000000000000000000000000000815273ffffffffffffffffffffffffffffffffffffffff8381166004830152600092169063d4358b1f90602401602060405180830381865afa158015610355573d6000803e3d6000fd5b505050506040513d601f19601f8201168201806040525081019061037991906107bb565b905073ffffffffffffffffffffffffffffffffffffffff811661041e576040517f08c379a000000000000000000000000000000000000000000000000000000000815260206004820152602560248201527f536f72727920796f757220667269656e64206973206e6f74206f6e207768617460448201527f734461707000000000000000000000000000000000000000000000000000000060648201526084016102db565b6000338360405161042e90610693565b73ffffffffffffffffffffffffffffffffffffffff928316815291166020820152604001604051809103906000f08015801561046e573d6000803e3d6000fd5b50604080516080810182524280825273ffffffffffffffffffffffffffffffffffffffff84811660208401819052338486018190528983166060860181905295517f50b3fb67000000000000000000000000000000000000000000000000000000008152600481019490945260248401919091526044830194909452606482019390935292935091908416906350b3fb6790608401600060405180830381600087803b15801561051d57600080fd5b505af1158015610531573d6000803e3d6000fd5b50506002805460018101825560009190915283517f405787fa12a823e0f2b7631cc41b3ba8828b3321ca811111fa75cd3aa3bb5ace6004909202918201556020808501517f405787fa12a823e0f2b7631cc41b3ba8828b3321ca811111fa75cd3aa3bb5acf830180547fffffffffffffffffffffffff000000000000000000000000000000000000000090811673ffffffffffffffffffffffffffffffffffffffff938416179091556040808801517f405787fa12a823e0f2b7631cc41b3ba8828b3321ca811111fa75cd3aa3bb5ad08601805484169185169190911790556060808901517f405787fa12a823e0f2b7631cc41b3ba8828b3321ca811111fa75cd3aa3bb5ad1909601805490931695841695909517909155805188831681523393810193909352908916908201527ff6d53c78c84276375332d8c7000b21b8336cab7d7a4a09ffc4a2be6c9787e32a935001905060405180910390a150505050565b610b90806107d983390190565b73ffffffffffffffffffffffffffffffffffffffff811681146106c257600080fd5b50565b600080600080608085870312156106db57600080fd5b8435935060208501356106ed816106a0565b925060408501356106fd816106a0565b9150606085013561070d816106a0565b939692955090935050565b602080825282518282018190526000919060409081850190868401855b8281101561078a578151805185528681015173ffffffffffffffffffffffffffffffffffffffff9081168887015286820151811687870152606091820151169085015260809093019290850190600101610735565b5091979650505050505050565b6000602082840312156107a957600080fd5b81356107b4816106a0565b9392505050565b6000602082840312156107cd57600080fd5b81516107b4816106a056fe608060405234801561001057600080fd5b50604051610b90380380610b9083398101604081905261002f9161007c565b600080546001600160a01b039384166001600160a01b031991821617909155600180549290931691161790556100af565b80516001600160a01b038116811461007757600080fd5b919050565b6000806040838503121561008f57600080fd5b61009883610060565b91506100a660208401610060565b90509250929050565b610ad2806100be6000396000f3fe608060405234801561001057600080fd5b50600436106100415760003560e01c8063469c811014610046578063526bf76e1461005b57806353f5e38014610079575b600080fd5b610059610054366004610796565b61008e565b005b610063610472565b6040516100709190610926565b60405180910390f35b61008161059e565b6040516100709190610940565b60005473ffffffffffffffffffffffffffffffffffffffff163314806100cb575060015473ffffffffffffffffffffffffffffffffffffffff1633145b61015c576040517f08c379a000000000000000000000000000000000000000000000000000000000815260206004820152602a60248201527f596f752063616e277420706172746963697061746520746f207468697320636f60448201527f6e766572736174696f6e0000000000000000000000000000000000000000000060648201526084015b60405180910390fd5b604080516000815260208101808352815190209161017c918491016109c0565b60405160208183030381529060405280519060200120036101f9576040517f08c379a000000000000000000000000000000000000000000000000000000000815260206004820152601060248201527f4d65737361676520697320656d707479000000000000000000000000000000006044820152606401610153565b60005473ffffffffffffffffffffffffffffffffffffffff1633036103455760408051608081018252828152336020808301919091526001805473ffffffffffffffffffffffffffffffffffffffff1693830193909352426060830152600280549384018155600052815180519293849360049091027f405787fa12a823e0f2b7631cc41b3ba8828b3321ca811111fa75cd3aa3bb5ace01926102a09284929101906106ce565b506020820151600182810180547fffffffffffffffffffffffff000000000000000000000000000000000000000090811673ffffffffffffffffffffffffffffffffffffffff94851617909155604080860151600286018054909316908516179091556060909401516003909301929092559054915191169033907fb3eade51ac74e59b110a9e8b756cfacc4e791d1293c83a1f69f2384373bb70ec90600090a35050565b60408051608081018252828152336020808301919091526000805473ffffffffffffffffffffffffffffffffffffffff1693830193909352426060830152600280546001810182559352815180519293849360049091027f405787fa12a823e0f2b7631cc41b3ba8828b3321ca811111fa75cd3aa3bb5ace01926103cd9284929101906106ce565b5060208201516001820180547fffffffffffffffffffffffff000000000000000000000000000000000000000090811673ffffffffffffffffffffffffffffffffffffffff9384161790915560408085015160028501805490931690841617909155606090930151600390920191909155600080549251929091169133917fb3eade51ac74e59b110a9e8b756cfacc4e791d1293c83a1f69f2384373bb70ec91a35050565b604080516080810182526060808252600060208301819052928201839052810191909152600280546104a6906001906109dc565b815481106104b6576104b6610a1a565b90600052602060002090600402016040518060800160405290816000820180546104df90610a49565b80601f016020809104026020016040519081016040528092919081815260200182805461050b90610a49565b80156105585780601f1061052d57610100808354040283529160200191610558565b820191906000526020600020905b81548152906001019060200180831161053b57829003601f168201915b5050509183525050600182015473ffffffffffffffffffffffffffffffffffffffff90811660208301526002830154166040820152600390910154606090910152919050565b60606002805480602002602001604051908101604052809291908181526020016000905b828210156106c557838290600052602060002090600402016040518060800160405290816000820180546105f590610a49565b80601f016020809104026020016040519081016040528092919081815260200182805461062190610a49565b801561066e5780601f106106435761010080835404028352916020019161066e565b820191906000526020600020905b81548152906001019060200180831161065157829003601f168201915b505050918352505060018281015473ffffffffffffffffffffffffffffffffffffffff90811660208085019190915260028501549091166040840152600390930154606090920191909152918352920191016105c2565b50505050905090565b8280546106da90610a49565b90600052602060002090601f0160209004810192826106fc5760008555610742565b82601f1061071557805160ff1916838001178555610742565b82800160010185558215610742579182015b82811115610742578251825591602001919060010190610727565b5061074e929150610752565b5090565b5b8082111561074e5760008155600101610753565b7f4e487b7100000000000000000000000000000000000000000000000000000000600052604160045260246000fd5b6000602082840312156107a857600080fd5b813567ffffffffffffffff808211156107c057600080fd5b818401915084601f8301126107d457600080fd5b8135818111156107e6576107e6610767565b604051601f82017fffffffffffffffffffffffffffffffffffffffffffffffffffffffffffffffe0908116603f0116810190838211818310171561082c5761082c610767565b8160405282815287602084870101111561084557600080fd5b826020860160208301376000928101602001929092525095945050505050565b60005b83811015610880578181015183820152602001610868565b8381111561088f576000848401525b50505050565b600081516080845280518060808601526108b68160a0870160208501610865565b6020840151915073ffffffffffffffffffffffffffffffffffffffff8083166020870152806040860151166040870152506060840151606086015260a07fffffffffffffffffffffffffffffffffffffffffffffffffffffffffffffffe0601f8301168601019250505092915050565b6020815260006109396020830184610895565b9392505050565b6000602080830181845280855180835260408601915060408160051b870101925083870160005b828110156109b3577fffffffffffffffffffffffffffffffffffffffffffffffffffffffffffffffc08886030184526109a1858351610895565b94509285019290850190600101610967565b5092979650505050505050565b600082516109d2818460208701610865565b9190910192915050565b600082821015610a15577f4e487b7100000000000000000000000000000000000000000000000000000000600052601160045260246000fd5b500390565b7f4e487b7100000000000000000000000000000000000000000000000000000000600052603260045260246000fd5b600181811c90821680610a5d57607f821691505b602082108103610a96577f4e487b7100000000000000000000000000000000000000000000000000000000600052602260045260246000fd5b5091905056fea26469706673582212205980a92d138cb72371c59743c3e01a51d9f7f2a7bda438fbe2a648afeff4319f64736f6c634300080d0033a26469706673582212201aeeca69ce23d1997cf268d5d300d0e60af71a7172fdf8b4300fa3102b5111ef64736f6c634300080d0033a264697066735822122011969ab68ac98a56adb4c00aa9571cd9d8da5747d7212943f4b64da2a3e8f3b264736f6c634300080d0033",
  "immutableReferences": {},
  "source": "// SPDX-License-Identifier: MIT\n///@author Adam Korchane\npragma solidity 0.8.13;\n\nimport \"./Manager.sol\";\n\n///@notice this contract create a Manage for a new user\ncontract WhatsDapp{\n    event NewUser(address indexed _user, Manager _manager);\n\n    mapping(address => Manager) manager;\n    /**\n    *@notice create a new Manager\n    */\n    function newAccount()external{\n        require(address(manager[msg.sender]) == address(0), \"you already have an account\");\n        Manager tmp = new Manager(msg.sender, address(this));\n        manager[msg.sender] = tmp;\n        emit NewUser(msg.sender, tmp);\n    }\n    ///@return the manager of _addr\n    function getManagerOf(address _addr)external view returns(Manager){\n        require(address(manager[_addr]) != address(0), \"Sorry your friend is not on WhatsDapp\");\n        return manager[_addr];\n    }\n}",
  "sourcePath": "/home/amsteradams/developpement/WhatsDapp/contracts/WhatsDapp.sol",
  "compiler": {
    "name": "solc",
    "version": "0.8.13+commit.abaa5c0e.Emscripten.clang"
  },
  "schemaVersion": "3.4.6",
  "updatedAt": "2022-05-21T10:35:12.054Z",
  "networkType": "ethereum",
  "devdoc": {
    "kind": "dev",
    "methods": {
      "getManagerOf(address)": {
        "returns": {
          "_0": "the manager of _addr"
        }
      }
    },
    "version": 1
  },
  "userdoc": {
    "kind": "user",
    "methods": {
      "newAccount()": {
        "notice": "create a new Manager"
      }
    },
    "notice": "this contract create a Manage for a new user",
    "version": 1
  }
}